{
  "contractName": "Prode",
  "abi": [
    {
      "inputs": [],
      "name": "apuestasRealizadas",
      "outputs": [
        {
          "internalType": "uint256",
          "name": "",
          "type": "uint256"
        }
      ],
      "stateMutability": "view",
      "type": "function"
    },
    {
      "inputs": [
        {
          "internalType": "uint256",
          "name": "",
          "type": "uint256"
        }
      ],
      "name": "apuestas_id",
      "outputs": [
        {
          "internalType": "uint256",
          "name": "idApuesta",
          "type": "uint256"
        },
        {
          "internalType": "address",
          "name": "apostador",
          "type": "address"
        },
        {
          "internalType": "uint256",
          "name": "idPartido",
          "type": "uint256"
        },
        {
          "internalType": "uint256",
          "name": "golesA",
          "type": "uint256"
        },
        {
          "internalType": "uint256",
          "name": "golesB",
          "type": "uint256"
        },
        {
          "internalType": "uint256",
          "name": "cantidad",
          "type": "uint256"
        }
      ],
      "stateMutability": "view",
      "type": "function"
    },
    {
      "inputs": [],
      "name": "blockTimestamp",
      "outputs": [
        {
          "internalType": "uint256",
          "name": "",
          "type": "uint256"
        }
      ],
      "stateMutability": "view",
      "type": "function"
    },
    {
      "inputs": [
        {
          "internalType": "uint256",
          "name": "",
          "type": "uint256"
        }
      ],
      "name": "partidos",
      "outputs": [
        {
          "internalType": "uint256",
          "name": "id",
          "type": "uint256"
        },
        {
          "internalType": "uint256",
          "name": "fechaPartido",
          "type": "uint256"
        },
        {
          "internalType": "uint256",
          "name": "golesA",
          "type": "uint256"
        },
        {
          "internalType": "uint256",
          "name": "golesB",
          "type": "uint256"
        },
        {
          "internalType": "uint256",
          "name": "pozo",
          "type": "uint256"
        }
      ],
      "stateMutability": "view",
      "type": "function"
    },
    {
      "inputs": [],
      "name": "partidosJugados",
      "outputs": [
        {
          "internalType": "uint256",
          "name": "",
          "type": "uint256"
        }
      ],
      "stateMutability": "view",
      "type": "function"
    },
    {
      "inputs": [
        {
          "internalType": "uint256",
          "name": "_fechaPartido",
          "type": "uint256"
        }
      ],
      "name": "crearPartido",
      "outputs": [],
      "stateMutability": "nonpayable",
      "type": "function"
    },
    {
      "inputs": [
        {
          "internalType": "uint256",
          "name": "_id",
          "type": "uint256"
        },
        {
          "internalType": "uint256",
          "name": "_golesA",
          "type": "uint256"
        },
        {
          "internalType": "uint256",
          "name": "_golesB",
          "type": "uint256"
        }
      ],
      "name": "finalizarPartido",
      "outputs": [],
      "stateMutability": "nonpayable",
      "type": "function"
    },
    {
      "inputs": [
        {
          "internalType": "uint256",
          "name": "_id",
          "type": "uint256"
        }
      ],
      "name": "leerPartido",
      "outputs": [
        {
          "internalType": "uint256[2]",
          "name": "",
          "type": "uint256[2]"
        }
      ],
      "stateMutability": "view",
      "type": "function"
    },
    {
      "inputs": [
        {
          "internalType": "uint256",
          "name": "_idPartido",
          "type": "uint256"
        },
        {
          "internalType": "uint256",
          "name": "_golesA",
          "type": "uint256"
        },
        {
          "internalType": "uint256",
          "name": "_golesB",
          "type": "uint256"
        },
        {
          "internalType": "uint256",
          "name": "_cantidad",
          "type": "uint256"
        }
      ],
      "name": "apostar",
      "outputs": [],
      "stateMutability": "nonpayable",
      "type": "function"
    },
    {
      "inputs": [
        {
          "internalType": "uint256",
          "name": "_idPartido",
          "type": "uint256"
        }
      ],
      "name": "verPozo",
      "outputs": [
        {
          "internalType": "uint256",
          "name": "",
          "type": "uint256"
        }
      ],
      "stateMutability": "view",
      "type": "function"
    },
    {
      "inputs": [
        {
          "internalType": "uint256",
          "name": "_idPartido",
          "type": "uint256"
        },
        {
          "internalType": "uint256",
          "name": "_idApuesta",
          "type": "uint256"
        }
      ],
      "name": "cobrarPremio",
      "outputs": [
        {
          "internalType": "uint256",
          "name": "",
          "type": "uint256"
        }
      ],
      "stateMutability": "view",
      "type": "function"
    }
  ],
  "bytecode": "0x6080604052426002556000600355600060045534801561001e57600080fd5b50610b238061002e6000396000f3fe608060405234801561001057600080fd5b50600436106100a95760003560e01c8063adb6183211610071578063adb6183214610168578063b75800ce14610186578063de809464146101a2578063e5821f4c146101c0578063eb58027a146101f5578063f207f8a814610225576100a9565b80630b2209ba146100ae578063293c033e146100de57806340deb070146100fa5780635a8e61fe1461012e5780638b32287e1461014c575b600080fd5b6100c860048036038101906100c39190610701565b610255565b6040516100d5919061073d565b60405180910390f35b6100f860048036038101906100f39190610758565b610274565b005b610114600480360381019061010f9190610701565b6102ad565b6040516101259594939291906107ab565b60405180910390f35b6101366102e3565b604051610143919061073d565b60405180910390f35b610166600480360381019061016191906107fe565b6102e9565b005b610170610411565b60405161017d919061073d565b60405180910390f35b6101a0600480360381019061019b9190610701565b610417565b005b6101aa6104ad565b6040516101b7919061073d565b60405180910390f35b6101da60048036038101906101d59190610701565b6104b3565b6040516101ec969594939291906108a6565b60405180910390f35b61020f600480360381019061020a9190610701565b61050f565b60405161021c91906109b2565b60405180910390f35b61023f600480360381019061023a91906109cd565b610569565b60405161024c919061073d565b60405180910390f35b6000806000838152602001908152602001600020600401549050919050565b81600080858152602001908152602001600020600201819055508060008085815260200190815260200160002060030181905550505050565b60006020528060005260406000206000915090508060000154908060010154908060020154908060030154908060040154905085565b60035481565b60006040518060c0016040528060045481526020013373ffffffffffffffffffffffffffffffffffffffff168152602001868152602001858152602001848152602001838152509050806001600060045481526020019081526020016000206000820151816000015560208201518160010160006101000a81548173ffffffffffffffffffffffffffffffffffffffff021916908373ffffffffffffffffffffffffffffffffffffffff16021790555060408201518160020155606082015181600301556080820151816004015560a082015181600501559050508160008087815260200190815260200160002060040160008282546103e99190610a3c565b925050819055506001600460008282546104039190610a3c565b925050819055505050505050565b60025481565b60006040518060a0016040528060035481526020018381526020016000815260200160008152602001600081525090508060008084815260200190815260200160002060008201518160000155602082015181600101556040820151816002015560608201518160030155608082015181600401559050506001600360008282546104a29190610a3c565b925050819055505050565b60045481565b60016020528060005260406000206000915090508060000154908060010160009054906101000a900473ffffffffffffffffffffffffffffffffffffffff16908060020154908060030154908060040154908060050154905086565b6105176106a4565b6000806000848152602001908152602001600020600201549050600080600085815260200190815260200160002060030154905060405180604001604052808381526020018281525092505050919050565b60003373ffffffffffffffffffffffffffffffffffffffff166001600084815260200190815260200160002060010160009054906101000a900473ffffffffffffffffffffffffffffffffffffffff1673ffffffffffffffffffffffffffffffffffffffff161461060f576040517f08c379a000000000000000000000000000000000000000000000000000000000815260040161060690610acd565b60405180910390fd5b6001600083815260200190815260200160002060030154600080858152602001908152602001600020600201540361069957600160008381526020019081526020016000206004015460008085815260200190815260200160002060030154036106905760008084815260200190815260200160002060040154905061069e565b6000905061069e565b600090505b92915050565b6040518060400160405280600290602082028036833780820191505090505090565b600080fd5b6000819050919050565b6106de816106cb565b81146106e957600080fd5b50565b6000813590506106fb816106d5565b92915050565b600060208284031215610717576107166106c6565b5b6000610725848285016106ec565b91505092915050565b610737816106cb565b82525050565b6000602082019050610752600083018461072e565b92915050565b600080600060608486031215610771576107706106c6565b5b600061077f868287016106ec565b9350506020610790868287016106ec565b92505060406107a1868287016106ec565b9150509250925092565b600060a0820190506107c0600083018861072e565b6107cd602083018761072e565b6107da604083018661072e565b6107e7606083018561072e565b6107f4608083018461072e565b9695505050505050565b60008060008060808587031215610818576108176106c6565b5b6000610826878288016106ec565b9450506020610837878288016106ec565b9350506040610848878288016106ec565b9250506060610859878288016106ec565b91505092959194509250565b600073ffffffffffffffffffffffffffffffffffffffff82169050919050565b600061089082610865565b9050919050565b6108a081610885565b82525050565b600060c0820190506108bb600083018961072e565b6108c86020830188610897565b6108d5604083018761072e565b6108e2606083018661072e565b6108ef608083018561072e565b6108fc60a083018461072e565b979650505050505050565b600060029050919050565b600081905092915050565b6000819050919050565b610930816106cb565b82525050565b60006109428383610927565b60208301905092915050565b6000602082019050919050565b61096481610907565b61096e8184610912565b92506109798261091d565b8060005b838110156109aa5781516109918782610936565b965061099c8361094e565b92505060018101905061097d565b505050505050565b60006040820190506109c7600083018461095b565b92915050565b600080604083850312156109e4576109e36106c6565b5b60006109f2858286016106ec565b9250506020610a03858286016106ec565b9150509250929050565b7f4e487b7100000000000000000000000000000000000000000000000000000000600052601160045260246000fd5b6000610a47826106cb565b9150610a52836106cb565b9250828201905080821115610a6a57610a69610a0d565b5b92915050565b600082825260208201905092915050565b7f41706f737461646f7220696e636f72726563746f000000000000000000000000600082015250565b6000610ab7601483610a70565b9150610ac282610a81565b602082019050919050565b60006020820190508181036000830152610ae681610aaa565b905091905056fea26469706673582212202f784b4295a280d9359ab055380cd4e7d9188c1f7ce865b53c6b602cc19a448364736f6c63430008110033",
  "immutableReferences": {},
  "source": "// SPDX-License-Identifier: MIT\npragma solidity ^0.8.0;\n\ncontract Prode {\n    struct Partido {\n        uint256 id;\n        uint256 fechaPartido;\n        uint256 golesA;\n        uint256 golesB;\n        uint256 pozo;\n    }\n\n    struct Apuesta {\n        uint256 idApuesta;\n        address apostador;\n        uint256 idPartido;\n        uint256 golesA;\n        uint256 golesB;\n        uint256 cantidad;\n    }\n\n    mapping(uint256 => Partido) public partidos;\n    mapping(uint256 => Apuesta) public apuestas_id;\n\n    uint256 public blockTimestamp = block.timestamp;\n    uint256 public partidosJugados = 0;\n    uint256 public apuestasRealizadas = 0;\n\n    function crearPartido(uint256 _fechaPartido) public {\n        Partido memory nuevoPartido = Partido(\n            partidosJugados,\n            _fechaPartido,\n            0,\n            0,\n            0\n        );\n        partidos[_fechaPartido] = nuevoPartido;\n        partidosJugados += 1;\n    }\n\n    function finalizarPartido(\n        uint256 _id,\n        uint256 _golesA,\n        uint256 _golesB\n    ) public {\n        // require(block.timestamp >= _fechaPartido, \"No podes finalizar este partido aun\");\n        partidos[_id].golesA = _golesA;\n        partidos[_id].golesB = _golesB;\n    }\n\n    function leerPartido(uint256 _id) public view returns (uint256[2] memory) {\n        uint256 miPartidoA = partidos[_id].golesA;\n        uint256 miPartidoB = partidos[_id].golesB;\n        return [miPartidoA, miPartidoB];\n    }\n\n    function apostar(\n        uint256 _idPartido,\n        uint256 _golesA,\n        uint256 _golesB,\n        uint256 _cantidad\n    ) public {\n        Apuesta memory nuevaApuesta = Apuesta(\n            apuestasRealizadas,\n            msg.sender,\n            _idPartido,\n            _golesA,\n            _golesB,\n            _cantidad\n        );\n        apuestas_id[apuestasRealizadas] = nuevaApuesta;\n        partidos[_idPartido].pozo += _cantidad;\n        apuestasRealizadas += 1;\n    }\n\n    function verPozo(uint256 _idPartido) public view returns (uint256) {\n        return partidos[_idPartido].pozo;\n    }\n\n    function cobrarPremio(uint256 _idPartido, uint256 _idApuesta)\n        public\n        view\n        returns (uint256)\n    {\n        require(\n            apuestas_id[_idApuesta].apostador == msg.sender,\n            \"Apostador incorrecto\"\n        );\n        if (partidos[_idPartido].golesA == apuestas_id[_idApuesta].golesA) {\n            if (partidos[_idPartido].golesB == apuestas_id[_idApuesta].golesB) {\n                return partidos[_idPartido].pozo;\n            } else {\n                return 0;\n            }\n        } else {\n            return 0;\n        }\n    }\n}\n",
  "sourcePath": "/Users/matiascaparros/Documents/Work/projects/criptoprode.io/contracts/contracts/Prode.sol",
  "compiler": {
    "name": "solc",
    "version": "0.8.17+commit.8df45f5f.Emscripten.clang"
  },
  "schemaVersion": "3.4.10",
  "updatedAt": "2022-11-15T23:49:50.297Z",
  "devdoc": {
    "kind": "dev",
    "methods": {},
    "version": 1
  },
  "userdoc": {
    "kind": "user",
    "methods": {},
    "version": 1
  }
}